:020000040000FA
:0400000007EF00F016
:100008005F82A4ED12F0F8EF10F0DC0E036E2F0EF5
:10001800046E830E056EAEEC11F00C0E5C18D8A4BD
:1000280018EF00F01AEF00F02AEF00F0464A472ACE
:10003800030E46184710D8A424EF00F026EF00F06E
:100048002AEF00F0000E476E000E466E465047102D
:10005800D8A431EF00F033EF00F074EF00F0415016
:10006800401009E1F40E3E5C010E3F58D8B03FEF56
:1000780000F041EF00F053EF00F0C30E0D6E200EBC
:10008800E6EC13F0C40E0D6E200EE6EC13F0010E34
:100098003E26000E3F22402241220BEF01F0415044
:1000A800401009E1E80E3E5C030E3F58D8B05FEF00
:1000B80000F061EF00F06AEF00F0900E036E046A42
:1000C800C30E056EAEEC11F04BEF00F0000E3E6E65
:1000D800000E3F6E000E406E000E416E0BEF01F0F9
:1000E80046044710D8A47BEF00F07DEF00F0C0EF86
:1000F80000F0000170516F1109E1F40E6D5D010E01
:100108006E59D8B08AEF00F08CEF00F09FEF00F046
:10011800C60E0D6E200EE6EC13F0C70E0D6E200E07
:10012800E6EC13F0010E00016D27000E6E236F231D
:1001380070230BEF01F070516F1109E1E80E6D5D4E
:10014800030E6E59D8B0ABEF00F0ADEF00F0B6EF8C
:1001580000F0900E036E046AC30E056EAEEC11F04B
:1001680096EF00F0000E6D6F000E6E6F000E6F6F51
:10017800000E706F0BEF01F0020E46184710D8A45E
:10018800C8EF00F0CAEF00F00BEF01F000016C516E
:100198006B1109E1F40E695D010E6A59D8B0D7EF09
:1001A80000F0D9EF00F0ECEF00F0C90E0D6E200E54
:1001B800E6EC13F0CA0E0D6E200EE6EC13F0010EFD
:1001C80000016927000E6A236B236C230BEF01F0F3
:1001D8006C516B1109E1E80E695D030E6A59D8B0DC
:1001E800F8EF00F0FAEF00F003EF01F0900E036E65
:1001F800046AC30E056EAEEC11F0E3EF00F0000EDA
:10020800696F000E6A6F000E6B6F000E6C6F0B0E3D
:100218005C18D8A412EF01F014EF01F0B4EF01F06C
:1002280046504710D8A41BEF01F01DEF01F044EF32
:1002380001F0320E0001906124EF01F026EF01F089
:1002480036EF01F0390E91612CEF01F02EEF01F03D
:1002580031EF01F0912B44EF01F0300E916F902BAC
:1002680044EF01F0330E91613CEF01F03EEF01F0F5
:1002780040EF01F02EEF01F0300E916F300E906FCD
:1002880046044710D8A44BEF01F04DEF01F077EF8B
:1002980001F0360E0001936154EF01F056EF01F0C2
:1002A80071EF01F0390E94615CEF01F05EEF01F03F
:1002B80061EF01F0942B77EF01F0932B300E946FE0
:1002C800360E9319D8A46BEF01F06DEF01F077EFBC
:1002D80001F0300E936F77EF01F0300E936F300E10
:1002E800946F77EF01F0020E46184710D8A47FEFFD
:1002F80001F081EF01F0B4EF01F0360E00019661D4
:1003080088EF01F08AEF01F0AEEF01F0390E976146
:1003180090EF01F092EF01F095EF01F0972BB4EF19
:1003280001F0390E9719D8A49CEF01F09EEF01F067
:10033800B4EF01F0300E976F962B360E9619D8A4AD
:10034800A8EF01F0AAEF01F0B4EF01F0300E966FBC
:10035800B4EF01F0300E966F300E976FB4EF01F0E6
:100368000D0E5C18D8A4BBEF01F0BDEF01F015EF3E
:1003780002F090C00FF00F3AF00E0F1600019151E5
:10038800D00F0F10556E55C002F0020ECAEC13F0D4
:1003980093C00FF00F3AF00E0F1600019451D00FD2
:1003A8000F10556E55C002F0010ECAEC13F096C03E
:1003B8000FF00F3AF00E0F1600019751D00F0F10E3
:1003C800556E55C002F0000ECAEC13F0000E016E17
:1003D800010E63EC13F0000E116E000E106EBD0ED0
:1003E800036E2F0E046E800E056EAEEC11F0104AEF
:1003F800112AA00E105C0F0E1158D8A006EF02F0BB
:1004080008EF02F0F3EF01F0000E4D6E010E4C6E96
:10041800000E476E000E466E000E016E010E63EC74
:1004280013F00E0E5C18D8A41CEF02F01EEF02F0B9
:1004380049EF02F0000E016E010E63EC13F0000E9E
:10044800136E000E126E430E036E2F0E046E800E96
:10045800056EAEEC11F0124A132AA00E125C0F0EB4
:100468001358D8A03AEF02F03CEF02F027EF02F061
:10047800000E016E010E63EC13F0000E4D6E010EBE
:100488004C6E000E476E000E466E1200040E596048
:1004980050EF02F052EF02F0D3EF02F00001865164
:1004A8008711D8A45AEF02F05CEF02F0D3EF02F004
:1004B800E40E036E2E0E046E800E056EAEEC11F087
:1004C8000B0E5C18D8A46BEF02F06DEF02F07CEF16
:1004D80002F059509E0FD96EDA6A300EDF6E59500D
:1004E800C00F0D6E2A0EE6EC13F0592A93EF02F0B6
:1004F8000C0E5C18D8A483EF02F085EF02F093EF9E
:1005080002F059509E0FD96EDA6A310EDF6E5950DB
:10051800C00F0D6E2A0EE6EC13F079EF02F0010E13
:100528003E26000E3F2240224122060E3E183F1072
:1005380040104110D8A4A3EF02F0A5EF02F0ADEFF0
:1005480002F05950C00F0D6E5F0EE6EC13F0F7EF96
:1005580002F00A0E3E183F1040104110D8A4B7EF21
:1005680002F0B9EF02F0C9EF02F0000E3E6E000E85
:100578003F6E000E406E000E416E5950C00F0D6E5A
:10058800200EE6EC13F0F7EF02F0000E3E6E000EC0
:100598003F6E000E406E000E416EF7EF02F0040E43
:1005A8005918D8A4DAEF02F0DCEF02F0F7EF02F006
:1005B800000186518711D8A4E4EF02F0E6EF02F0BB
:1005C800F7EF02F059509E0FD96EDA6ADF6A000E13
:1005D800596E000E016E010E63EC13F0000E00015F
:1005E800876F010E866F040E5860FDEF02F0FFEF73
:1005F80002F07EEF03F0000186058711D8A407EF0B
:1006080003F009EF03F07EEF03F07E0E036E2F0E6A
:10061800046E800E056EAEEC11F00B0E5C18D8A4BB
:1006280018EF03F01AEF03F029EF03F05850990F71
:10063800D96EDA6A300EDF6E5850C00F0D6E2A0E72
:10064800E6EC13F0582A40EF03F00C0E5C18D8A41F
:1006580030EF03F032EF03F040EF03F05850990FFA
:10066800D96EDA6A310EDF6E5850C00F0D6E2A0E41
:10067800E6EC13F026EF03F0010E3E26000E3F22B3
:1006880040224122060E3E183F1040104110D8A4C7
:1006980050EF03F052EF03F05AEF03F05850C00F39
:1006A8000D6E5F0EE6EC13F07EEF03F00A0E3E18B7
:1006B8003F1040104110D8A464EF03F066EF03F038
:1006C80076EF03F0000E3E6E000E3F6E000E406E99
:1006D800000E416E5850C00F0D6E200EE6EC13F060
:1006E8007EEF03F0000E3E6E000E3F6E000E406E71
:1006F800000E416E040E5818D8A485EF03F087EF5A
:1007080003F033EF04F0000186058711D8A48FEFBA
:1007180003F091EF03F033EF04F05850990FD96EBE
:10072800DA6ADF6A990E016E9E0E026E75EC12F09F
:1007380001500210D8A4A3EF03F0A5EF03F0FDEFDA
:1007480003F0C80E136E000E196E000E186E1850C6
:100758009E0FD96EDA6ADF500D6E1350F5EC12F069
:10076800132A184A192A19BEC3EF03F0195009E1D0
:10077800040E185CD8A0C3EF03F0C5EF03F0ABEF8D
:1007880003F0000E016E010E63EC13F0000E156EFF
:10079800000E146E150E036E2F0E046E800E056E7D
:1007A800AEEC11F0B10E036E2F0E046EC00E056E86
:1007B800AEEC11F0144A152AA00E145C0F0E155851
:1007C800D8A0E9EF03F0EBEF03F0CEEF03F0000E53
:1007D8004D6E010E4C6E000E0001876F000E866F85
:1007E800000E586E000E016E010E63EC13F033EF2D
:1007F80004F0000E016E010E63EC13F0000E176E8C
:10080800000E166E610E036E2F0E046E800E056EBE
:10081800AEEC11F0ED0E036E2F0E046EC00E056ED9
:10082800AEEC11F0164A172AA00E165C0F0E1758D8
:10083800D8A021EF04F023EF04F006EF04F0000E37
:100848000001876F000E866F000E4D6E010E4C6E14
:10085800000E586E000E016E010E63EC13F01200CC
:100868001950800B266E195019242D6E18AE3FEFC3
:1008780004F041EF04F042EF04F02D802D50D8B47D
:1008880048EF04F04AEF04F05FEF04F02D28D8A4F5
:1008980050EF04F052EF04F05AEF04F0000E166E19
:1008A800000E176E000E186E000E196E188E000ED0
:1008B800196E67EF04F0000E166E000E176E000E2C
:1008C800186E000E196E1D50800B261A1D501D241F
:1008D8002E6E1CAE72EF04F074EF04F075EF04F0A6
:1008E8002E802E50D8B47BEF04F07DEF04F092EF09
:1008F80004F02E28D8A483EF04F085EF04F08DEFE0
:1009080004F0000E1A6E000E1B6E000E1C6E000E18
:100918001D6E1C8E000E1D6E9AEF04F0000E1A6EEE
:10092800000E1B6E000E1C6E000E1D6E1A501B1062
:100938001C101D10D8A4A3EF04F0A5EF04F0BDEF20
:1009480004F0000E166E000E176E000E186E000EE4
:10095800196E800E18127F0E19122650191216C021
:1009680016F017C017F018C018F019C019F000EFEA
:1009780006F02D50D8A4C3EF04F0C5EF04F0CFEF74
:1009880004F0000E166E000E176E000E186E000EA4
:10099800196E00EF06F02E502DC01EF01F6A1E5E65
:1009A800000E1F5A7F0E1E24276E000E1F20286E71
:1009B80016C022F017C023F018C024F019C025F083
:1009C800000E166E000E176E000E186E000E196ED1
:1009D800000E296E000E2A6E000E2B6E000E2C6E75
:1009E800000E2E6E30EF05F02E50D8B4FEEF04F056
:1009F80000EF05F017EF05F0D8902236233624369D
:100A08002536D89016361736183619362CAE0FEF0D
:100A180005F011EF05F012EF05F01680D890293691
:100A28002A362B362C361A50225C1B5023581C5061
:100A380024581D502558D8A024EF05F026EF05F0BE
:100A48002FEF05F02C8C1A50225E1B50235A1C5095
:100A5800245A1D50255A2E2A190E2E6436EF05F0F9
:100A680038EF05F0F8EF04F0225023102410251079
:100A7800D8B441EF05F043EF05F05BEF05F02980AE
:100A88005BEF05F0D89016361736183619362CAEA7
:100A980050EF05F052EF05F053EF05F01680D890AF
:100AA80029362A362B362C362706D8A0280618AE23
:100AB80060EF05F062EF05F046EF05F0000E2E6ED0
:100AC8002CAE69EF05F06BEF05F08FEF05F0FF0E28
:100AD80029141E6EFF0E2A141F6EFF0E2B14206E93
:100AE8007F0E2C14216E1E501F1020102110D8B418
:100AF80080EF05F082EF05F086EF05F0010E2E6E0F
:100B08008FEF05F016A08BEF05F08DEF05F08FEF56
:100B180005F082EF05F02E50D8B495EF05F097EF69
:100B280005F0BBEF05F0010E1626000E172218225D
:100B3800192219A0A2EF05F0A4EF05F0BBEF05F00C
:100B480016C01EF017C01FF018C020F019C021F001
:100B58002134213220321F321E321EC016F01FC02F
:100B680017F020C018F021C019F0274A282A28BEFB
:100B7800C6EF05F0285008E12728D8A0C6EF05F0F1
:100B8800C8EF05F0D3EF05F0000E286E2768000EB9
:100B9800166E000E176E000E186E000E196E28BE27
:100BA800E0EF05F0285006E12704D8B0DEEF05F0A5
:100BB800E0EF05F0EEEF05F0000E286E000E276E50
:100BC800000E166E000E176E000E186E000E196ECF
:100BD800000E266E27C02DF02DA0F5EF05F0F7EFDB
:100BE80005F0FAEF05F0188EFBEF05F0189ED89087
:100BF8002D30196EB1EF04F01200040E596007EFA2
:100C080006F009EF06F0B8EF06F0520E036E2F0E4D
:100C1800046E800E056EAEEC11F0030E000176191D
:100C28007711D8A41AEF06F01CEF06F02BEF06F0A8
:100C3800000E8B6F000E8A6F000E596E000EAB6FA0
:100C4800030EAA6F000E016E010E63EC13F00B0E7B
:100C58005C18D8A432EF06F034EF06F057EF06F030
:100C68004250431044104510D8A43DEF06F03FEF22
:100C780006F057EF06F0000E0001776F000E766F52
:100C8800000E7F6F000E7E6F59500F0FD96EDA6A13
:100C9800300EDF6E5950C00F0D6E2A0EE6EC13F0C1
:100CA800592A82EF06F00C0E5C18D8A45EEF06F005
:100CB80060EF06F082EF06F04250431044104510F2
:100CC800D8A469EF06F06BEF06F082EF06F0000E8D
:100CD8000001776F000E766F000E7F6F000E7E6F3B
:100CE80059500F0FD96EDA6A310EDF6E5950C00FA6
:100CF8000D6E2A0EE6EC13F054EF06F0010E3E26B8
:100D0800000E3F2240224122060E3E183F1040109E
:100D18004110D8A492EF06F094EF06F09CEF06F08D
:100D28005950C00F0D6E5F0EE6EC13F023EF07F07D
:100D38000A0E3E183F1040104110D8A4A6EF06F046
:100D4800A8EF06F023EF07F0000E3E6E000E3F6E90
:100D5800000E406E000E416E5950C00F0D6E200EF1
:100D6800E6EC13F023EF07F0040E5918D8A4BFEFF0
:100D780006F0C1EF06F023EF07F059500F0FD96EB8
:100D8800DA6ADF6AA30E016E0F0E026E75EC12F0BE
:100D980001500210D8A4D3EF06F0D5EF06F0EBEF20
:100DA80006F0000E016E010E63EC13F0000E4D6E9E
:100DB800010E4C6E000E00018B6F000E8A6F000E44
:100DC800596E000EAD6F030EAC6FA7EF07F0000170
:100DD800AC07D8A0AD07000E016E010E63EC13F04E
:100DE800000E156E000E146E340E036E2F0E046E78
:100DF800800E056EAEEC11F0F50E036E2E0E046E2D
:100E0800C00E056EAEEC11F0CF0E0D6E0001AC51A8
:100E1800300FE6EC13F0144A152AB80E145C0B0ECA
:100E28001558D8A01AEF07F01CEF07F0F8EF06F0F6
:100E3800000E016E010E63EC13F0000E596E0001F6
:100E4800AC51AD11D8A42BEF07F02DEF07F082EFCE
:100E580007F0A851A911D8B434EF07F036EF07F01E
:100E68003EEF07F0000E5E6E780E5D6E000EA96F05
:100E7800000EA86F050E596E990E036E2F0E046EA4
:100E8800800E056EAEEC11F0C30E0D6E5DC008F05D
:100E98005EC009F0000E0B6E0A0E0A6EE4EC11F04B
:100EA8000850300FE6EC13F0C20E0D6E000E046E03
:100EB8000A0E036E5DC001F05EC002F074EC11F022
:100EC80001C008F002C009F0000E0B6E0A0E0A6E8F
:100ED800E4EC11F00850300FE6EC13F0C10E0D6E83
:100EE8005DC001F05EC002F0000E046E640E036E79
:100EF80074EC11F00150300FE6EC13F05D505E1009
:100F0800D8A489EF07F08BEF07F0A7EF07F0000EE2
:100F18000001AB6F010EAA6F000E8B6F000E8A6F77
:100F2800000EAD6F030EAC6F000E596E000E5E6EB4
:100F3800780E5D6E000E016E010E63EC13F0000E6C
:100F48004D6E000E4C6E120016EC12F062EC0BF0B7
:100F5800010E37EC11F05C6EE0EF07F0000E37EC95
:100F680011F05C6E42C03AF043C03BF044C03CF024
:100F780045C03DF0422A000E4322442245223D50FE
:100F88003C100BE1500E3A5CC30E3B58D8A0CFEF93
:100F980007F0D1EF07F0E0EF07F0000E426E000E09
:100FA800436E000E446E000E456E0E0E5C6E000E13
:100FB800016E010E63EC13F00C0E5C18D8A4E7EF79
:100FC80007F0E9EF07F0F2EF07F04C504D10D8A406
:100FD800F0EF07F0F2EF07F0B2EF07F045504410DA
:100FE8000BE1F50E425C010E4358D8A0FEEF07F066
:100FF80000EF08F048EF08F04550441009E1500EA2
:10100800425CC30E4358D8B00CEF08F00EEF08F05E
:1010180048EF08F00C0E5C6E000E426E000E436E38
:10102800000E446E000E456E48EF08F0000E37ECD7
:1010380011F05C6E42C03AF043C03BF044C03CF053
:1010480045C03DF0422A000E4322442245223D502D
:101058003C100BE1500E3A5CC30E3B58D8A037EF5A
:1010680008F039EF08F048EF08F0000E426E000E65
:10107800436E000E446E000E456E0D0E5C6E000E43
:10108800016E010E63EC13F00B0E5C18D8A44FEF41
:1010980008F051EF08F05AEF08F04C504D10D8A462
:1010A80058EF08F05AEF08F01AEF08F045504410CE
:1010B8000BE1F50E425C010E4358D8A066EF08F02C
:1010C80068EF08F080EF08F04550441009E1500E31
:1010D800425CC30E4358D8B074EF08F076EF08F0BE
:1010E80080EF08F00B0E5C6E000E426E000E436E31
:1010F800000E446E000E456E0B0E5C18D8A487EFE8
:1011080008F089EF08F0A6EF08F000018A518B116A
:10111800D8A491EF08F093EF08F0A6EF08F04C5030
:101128004D10D8A49AEF08F09CEF08F0A6EF08F04D
:10113800000E8B6F010E8A6F5C68000E016E010E47
:1011480063EC13F000018A058B11D8A4AEEF08F008
:10115800B0EF08F0B4EF08F001EC06F0ACEF07F0E0
:101168004C504D10D8B4BBEF08F0BDEF08F0AAEF13
:1011780007F04C044D10D8A4C4EF08F0C6EF08F0EF
:10118800CAEF08F067EC0CF0ACEF07F0020E4C1851
:101198004D10D8A4D2EF08F0D4EF08F0D8EF08F03B
:1011A80049EC0AF0ACEF07F0030E4C184D10D8A428
:1011B800E0EF08F0E2EF08F0E6EF08F014EC09F0D1
:1011C800ACEF07F0040E4C184D10D8A4EEEF08F061
:1011D800F0EF08F0F4EF08F06EEC10F0ACEF07F069
:1011E800050E4C184D10D8A4FCEF08F0FEEF08F0DF
:1011F80002EF09F009EC00F0ACEF07F0060E4C180E
:101208004D10D8A40AEF09F00CEF09F010EF09F01F
:101218004AEC02F0ACEF07F0ACEF07F007EF00F094
:1012280011EC14F048504910D8A41DEF09F01FEF35
:1012380009F049EF09F0C80E026E2F0E036E46EC56
:1012480012F0000E1C6E000E1B6ED20E036E2F0ED7
:10125800046E800E056EAEEC11F01B4A1C2AA00E1F
:101268001B5C0F0E1C58D8A03CEF09F03EEF09F0AC
:1012780029EF09F0000E4D6E010E4C6E000E016E46
:10128800010E63EC13F048EF0AF0000E1E6E000E1C
:101298001D6E1D4A1E2A700E1D5C170E1E58D8A002
:1012A80058EF09F05AEF09F04DEF09F0A50E036E5B
:1012B8002F0E046E830E056EAEEC11F0E50E036E74
:1012C8002F0E046EC30E056EAEEC11F0000E206EEC
:1012D800000E1F6E16EF0AF01F50300F066E200E1C
:1012E800076E000E246E020E236E040E23182410BF
:1012F800D8B481EF09F083EF09F08DEF09F0070EFC
:1013080023182410D8A48BEF09F08DEF09F095EF7E
:1013180009F02350060FD96EDA6A3A0EDF6EA0EF95
:1013280009F0565080EC13F05A6E562A2350060FD7
:10133800D96EDA6A5AC0DFFF234A242A24BEAEEFE8
:1013480009F0245009E10A0E235CD8A0AEEF09F099
:10135800B0EF09F079EF09F0000E266E0A0E256E3F
:101368000A0E25182610D8B4BCEF09F0BEEF09F014
:10137800C8EF09F00D0E25182610D8A4C6EF09F0FD
:10138800C8EF09F0D0EF09F02550060FD96EDA6AD8
:10139800200EDF6EDBEF09F0565080EC13F05A6E2A
:1013A800562A2550060FD96EDA6A5AC0DFFF254A39
:1013B800262A26BEE9EF09F0265009E1100E255C21
:1013C800D8A0E9EF09F0EBEF09F0B4EF09F0000E4F
:1013D800166E060E026E036A46EC12F0F90E026EE5
:1013E8002F0E036E46EC12F0000E176E000E186EEC
:1013F800000E196E000E1A6E010E1726000E182226
:1014080019221A221A5019100BE1880E175C130EB4
:101418001858D8A012EF0AF014EF0AF000EF0AF0FB
:101428001F4A202A48501F5C49502058D8A01FEF57
:101438000AF021EF0AF070EF09F0000E016E010EBC
:1014480063EC13F0000E4D6E010E4C6E000E226E12
:10145800000E216E214A222AA00E215C0F0E22586E
:10146800D8A039EF0AF03BEF0AF02EEF0AF0700E21
:10147800036E2F0E046E810E056EAEEC11F0000E99
:10148800016E010E63EC13F0120082C080F083C07D
:1014980081F00001815109E10A0E805DD8A057EF63
:1014A8000AF059EF0AF05DEF0AF0000E816F000EA6
:1014B800806F48504910D8A464EF0AF066EF0AF02C
:1014C8008AEF0AF0000E126E000E116E050E036E02
:1014D8002F0E046E800E056EAEEC11F0114A122A22
:1014E800A00E115C0F0E1258D8A07DEF0AF07FEF06
:1014F8000AF06AEF0AF0000E4D6E010E4C6E000EF7
:10150800016E010E63EC13F04FEF0BF057500A0D0C
:10151800F3CF13F0F4CF14F0F40E036E2F0E046E15
:10152800850E056EAEEC11F0C00E0D6E5750300FE3
:10153800E6EC13F0FD0E036E2F0E046EC10E056E61
:10154800AEEC11F0000E166E020E156E040E151894
:101558001610D8B4B2EF0AF0B4EF0AF0BEEF0AF0F2
:10156800070E15181610D8A4BCEF0AF0BEEF0AF043
:10157800C6EF0AF01550C00F0D6E3A0EE6EC13F0E8
:10158800D2EF0AF0135080EC13F05A6E134A142A63
:101598001550C00F0D6E5A50E6EC13F0154A162A76
:1015A80016BEE0EF0AF0165009E10A0E155CD8A045
:1015B800E0EF0AF0E2EF0AF0AAEF0AF0FC0E036E81
:1015C8002F0E046ECA0E056EAEEC11F0135080ECAF
:1015D80013F05A6E134A142ACB0E0D6E5A50E6ECCD
:1015E80013F0135080EC13F05A6E134A142ACC0EE1
:1015F8000D6E5A50E6EC13F0FC0E036E2F0E046EBF
:10160800CD0E056EAEEC11F0135080EC13F05A6E4F
:10161800134A142ACE0E0D6E5A50E6EC13F01350EE
:1016280080EC13F05A6E134A142ACF0E0D6E5A50DE
:10163800E6EC13F00B0E5C18D8A425EF0BF027EF9F
:101648000BF034EF0BF05750D8B42DEF0BF02FEF11
:101658000BF034EF0BF000018007D8A08107570684
:101668000C0E5C18D8A43BEF0BF03DEF0BF04FEFDE
:101678000BF057500F6E106A48500F5C49501058C5
:10168800D8B049EF0BF04BEF0BF04FEF0BF0000128
:10169800804B812B572A0E0E5C18D8A456EF0BF0FE
:1016A80058EF0BF061EF0BF0000E4D6E010E4C6E13
:1016B800000E016E010E63EC13F01200B5EC10F091
:1016C800250E036E2F0E046E820E056EAEEC11F021
:1016D800900E036E046AC00E056EAEEC11F0000E9B
:1016E8001A6E000E1B6E240E1C6E410E1D6E040E2B
:1016F80040EC13F001C008F002C009F00A6A0B6A56
:10170800000E4BEC0DF008C016F009C017F00AC027
:1017180018F00BC019F034EC04F016C02FF017C005
:1017280030F018C031F019C032F04FEC0FF02FC074
:1017380050F030C051F0000E0001776F000E766F48
:101748005C04D8A4AAEF0BF0ACEF0BF0D7EF0BF0CA
:101758004250431044104510D8A4B5EF0BF0B7EF32
:101768000BF0D7EF0BF0070E52185310D8A4BFEFA9
:101778000BF0C1EF0BF0C9EF0BF0000E536E010E2A
:10178800526E25EC0EF03AEF0CF0060E521853107C
:10179800D8B4D1EF0BF0D3EF0BF03AEF0CF0524A7C
:1017A800532AC5EF0BF0020E5C18D8A4DEEF0BF03D
:1017B800E0EF0BF016EF0CF04250431044104510C8
:1017C800D8A4E9EF0BF0EBEF0BF016EF0CF0070ED7
:1017D80052185310D8A4F3EF0BF0F5EF0BF0FBEF12
:1017E8000BF0000E536E010E526E25EC0EF05204F3
:1017F8005310D8B402EF0CF004EF0CF03AEF0CF0F1
:1018080053BE0FEF0CF0535008E15204D8A00FEF6D
:101818000CF011EF0CF03AEF0CF05206D8A053067A
:10182800C5EF0BF0030E5C18D8A41DEF0CF01FEFEA
:101838000CF03AEF0CF0070E52185310D8B427EFFB
:101848000CF029EF0CF03AEF0CF042504310441022
:101858004510D8A432EF0CF034EF0CF03AEF0CF04E
:10186800000E536E070E526EC5EF0BF05250030D6B
:10187800F350AF0F396E39C003F0046ACA0E056E13
:10188800AEEC11F0CE0E0D6E50C001F051C002F05A
:10189800000E046E0A0E036E74EC11F00150300F46
:1018A800E6EC13F0CF0E0D6E50C008F051C009F0F1
:1018B800000E0B6E0A0E0A6EE4EC11F00850300FA1
:1018C800E6EC13F012004E504F10D8A46EEF0CF057
:1018D80070EF0CF07CEF0CF0800E0D6E2A0EE6EC2B
:1018E80013F0C00E0D6E200EE6EC13F086EF0CF030
:1018F800800E0D6E200EE6EC13F0C00E0D6E2A0E53
:10190800E6EC13F04AC00FF04BC010F00F3A103A53
:10191800F00E10160F500F0B1012F00E0F16000ECF
:101928000F24036E010E1020046E810E056EAEECBE
:1019380011F04AC00FF04BC010F00F3A103AF00EF9
:1019480010160F500F0B1012F00E0F16100E0F245A
:10195800036E010E1020046EC10E056EAEEC11F080
:101968000D0E5C18D8A4BBEF0CF0BDEF0CF0D6EF51
:101978000CF04E504F10D8A4C4EF0CF0C6EF0CF08A
:10198800CEEF0CF04AC003F04BC004F026EC10F088
:10199800D6EF0CF0010E4A24036E000E4B20046EA5
:1019A80026EC10F00C0E5C18D8A4DDEF0CF0DFEF7D
:1019B8000CF005EF0DF0000E0001896F010E886F25
:1019C8004E504F10D8A4EBEF0CF0EDEF0CF0F3EF06
:1019D8000CF0000E4F6E010E4E6E05EF0DF04B50E1
:1019E80007E1030E4A5CD8B0FCEF0CF0FEEF0CF0F8
:1019F80005EF0DF04A4A4B2A000E016E010E63EC0A
:101A080013F00B0E5C18D8A40CEF0DF00EEF0DF0D0
:101A180033EF0DF0000E0001896F010E886F4E0440
:101A28004F10D8A41AEF0DF01CEF0DF022EF0DF0B7
:101A3800000E4F6E000E4E6E33EF0DF04A504B10F5
:101A4800D8B429EF0DF02BEF0DF033EF0DF04A0667
:101A5800D8A04B06000E016E010E63EC13F00E0EBB
:101A68005C18D8A43AEF0DF03CEF0DF04AEF0DF0FA
:101A7800000E4D6E000E4C6E000E00018B6F000EB6
:101A88008A6F000E016E010E63EC13F01200106EE7
:101A98001050D8B452EF0DF054EF0DF076EF0DF072
:101AA8000BBE5BEF0DF059EF0DF076EF0DF008C0AF
:101AB8000CF009C00DF00AC00EF00BC00FF00C1EA0
:101AC8000D1E0E1E0F1E0C2A000E0D220E220F22B6
:101AD8000CC012F00DC013F00EC014F00FC015F0BA
:101AE8007EEF0DF008C012F009C013F00AC014F020
:101AF8000BC015F0085009100A100B10D8A487EF76
:101B08000DF089EF0DF093EF0DF0000E086E000E4A
:101B1800096E000E0A6E000E0B6E24EF0EF0960E84
:101B2800116E9DEF0DF0112AD89015321432133230
:101B38001232000E12140C6E000E13140D6E000EED
:101B480014140E6EFE0E15140F6E0C500D100E10A0
:101B58000F10D8A4B2EF0DF0B4EF0DF097EF0DF021
:101B6800C2EF0DF0112A010E1226000E13221422C4
:101B78001522D8901532143213321232000E121474
:101B88000C6E000E13140D6E000E14140E6EFF0E64
:101B980015140F6E0C500D100E100F10D8A4D7EF9F
:101BA8000DF0D9EF0DF0B6EF0DF0E1EF0DF01106E5
:101BB800D890123613361436153614BEE6EF0DF0EB
:101BC800E8EF0DF0F0EF0DF0020E1160EEEF0DF002
:101BD800F0EF0DF0DBEF0DF011B0F5EF0DF0F7EFD2
:101BE8000DF0F8EF0DF0149ED890113211C00CF0E2
:101BF8000D6A0E6A0F6A0CC00FF00E6A0D6A0C6A45
:101C08000C5012120D5013120E5014120F501512C0
:101C18001050D8B412EF0EF014EF0EF01CEF0EF0C7
:101C28000BBE1BEF0EF019EF0EF01CEF0EF0158E29
:101C380012C008F013C009F014C00AF015C00BF068
:101C48001200495007E10B0E485CD8B02EEF0EF099
:101C580030EF0EF032EF0EF0484A492A620E5B640C
:101C680038EF0EF03AEF0EF041EF0EF0000E0001E3
:101C78008D6F010E8C6F000E5B6E00018C518D1103
:101C8800D8B449EF0EF04BEF0EF05CEF0EF0824B3C
:101C9800832B835109E10B0E825DD8A056EF0EF01D
:101CA80058EF0EF05CEF0EF0000E836F000E826F9F
:101CB800000E146E000E136E020E13181410D8B412
:101CC80068EF0EF06AEF0EF080EF0EF0050E1318B5
:101CD8001410D8A472EF0EF074EF0EF076EF0EF039
:101CE80080EF0EF01350900FD96EDA6ADF500D6E48
:101CF8005B50F5EC12F05B2A134A142A14BE8EEFDF
:101D08000EF0145009E1080E135CD8A08EEF0EF007
:101D180090EF0EF060EF0EF05250030DF350AF0F3E
:101D2800D96EDA6ADF500D6E5B50F5EC12F05B2A63
:101D38005250030DF350B00FD96EDA6ADF500D6EB2
:101D48005B50F5EC12F05B2A50C001F051C002F074
:101D5800000E046E0A0E036E74EC11F00150300F81
:101D68000D6E5B50F5EC12F05B2A50C008F051C0C4
:101D780009F0000E0B6E0A0E0A6EE4EC11F0085022
:101D8800300F0D6E5B50F5EC12F05B2A1200819A51
:101D9800818C818E81B2D3EF0EF0D5EF0EF0D8EFA3
:101DA8000EF0010E4EEF0FF081B4DDEF0EF0DFEF15
:101DB8000EF0E2EF0EF0040E4EEF0FF081B6E7EFF3
:101DC8000EF0E9EF0EF0ECEF0EF0070E4EEF0FF00D
:101DD80081B8F1EF0EF0F3EF0EF0F6EF0EF00A0E09
:101DE8004EEF0FF0818A819C818E81B2FEEF0EF05A
:101DF80000EF0FF003EF0FF0020E4EEF0FF081B47B
:101E080008EF0FF00AEF0FF00DEF0FF0050E4EEF91
:101E18000FF081B612EF0FF014EF0FF017EF0FF07D
:101E2800080E4EEF0FF081B81CEF0FF01EEF0FF009
:101E380021EF0FF00B0E4EEF0FF0818A818C819EFF
:101E4800819E81B22AEF0FF02CEF0FF02FEF0FF0E9
:101E5800030E4EEF0FF081B434EF0FF036EF0FF0B2
:101E680039EF0FF0060E4EEF0FF081B63EEF0FF090
:101E780040EF0FF043EF0FF0090E4EEF0FF081B86F
:101E880048EF0FF04AEF0FF04DEF0FF00C0E4EEF4A
:101E98000FF0FF0E120031343234386E3850D8A4A7
:101EA80058EF0FF05AEF0FF064EF0FF0000E2F6E9F
:101EB800000E306E000E316E000E326ED1EF0FF054
:101EC8002FC033F030C034F031C035F032C036F0B6
:101ED800200E74EF0FF0D890363235323432333268
:101EE800E82E6FEF0FF03350376E318EFF0E2F163E
:101EF800FF0E3016FF0E3116000E3216960E385EA3
:101F080038BE8BEF0FF089EF0FF0A1EF0FF03850CC
:101F1800800A970FD8B093EF0FF095EF0FF097EF77
:101F28000FF05AEF0FF0D8903232313230322F3270
:101F3800383E97EF0FF0B9EF0FF01F0E3864A7EF98
:101F48000FF0A9EF0FF0B1EF0FF05AEF0FF0D890A4
:101F58002F3630363136323638063850D8A4B7EFF7
:101F68000FF0B9EF0FF0ABEF0FF03750D8B4BFEF69
:101F78000FF0C1EF0FF0C9EF0FF0321E311E301E07
:101F88002F6C000E3022312232222FC02FF030C0A9
:101F980030F031C031F032C032F01200000E956ED0
:101FA8009450F80B946E8290C30E036ECD0EE82EFB
:101FB800FED7032EFCD70000000E016E330E63EC33
:101FC80013F01B0E036E9E0EE82EFED7032EFCD7D1
:101FD80000D0000E016E330E63EC13F0A60EE82E4F
:101FE800FED700D0000E016E330E63EC13F000D064
:101FF80000D00000000E016E020E63EC13F0A60E76
:10200800E82EFED700D0000E016E380E63EC13F0F8
:10201800A60EE82EFED700D0000E016E010E63EC6E
:1020280013F0040E036E3E0EE82EFED7032EFCD7E7
:10203800000E016E0C0E63EC13F0A60EE82EFED710
:1020480000D0120046EF10F0000E4D6E020E4C6EDE
:1020580068EF10F0000E4D6E030E4C6E68EF10F036
:10206800000E4D6E040E4C6E68EF10F0000E4D6EB3
:10207800050E4C6E68EF10F0000E4D6E060E4C6E9D
:1020880068EF10F003C005F004C006F00650000A1F
:10209800D8B451EF10F068EF10F00550000AD8B42A
:1020A80028EF10F0010AD8B42EEF10F0030AD8B4C4
:1020B80034EF10F0010AD8B43AEF10F0070AD8B498
:1020C80040EF10F068EF10F0000E016E010E63ECA7
:1020D80013F01200000E076E000E066ED30E036E8C
:1020E8002E0E046E800E056EAEEC11F0064A072A1D
:1020F800A00E065C0F0E0758D8A085EF10F087EFEA
:1021080010F072EF10F0000E496E000E486E000ECF
:102118005B6E000E4D6E010E4C6E000E016E010ED0
:1021280063EC13F0000E096E000E086E8C0E036E41
:102138002F0E046E800E056EAEEC11F0084A092AC7
:10214800A00E085C0F0E0958D8A0ADEF10F0AFEF45
:1021580010F09AEF10F0000E016E010E63EC13F010
:102168001200020E95EC13F00001716F010E95EC50
:1021780013F00001726F000E95EC13F00001736FFD
:1021880071ADC9EF10F0CBEF10F0D6EF10F0713948
:102198000F0B010B300F906F71510F0B300F916FB8
:1021A800DFEF10F071390F0B030B300F906F715187
:1021B8000F0B300F916F3A0E926F72390F0B0F0B96
:1021C800300F936F72510F0B300F946F3A0E956F5B
:1021D80073390F0B0F0B300F966F73510F0B300FB6
:1021E800976F000E986F12009A0EF66E250EF76E16
:1021F800000EF86E01EE00F010EE50F00900F5CF79
:10220800EEFFE550E150FAE1740EF66E270EF76E18
:10221800000EF86E00EEA8F010EE1FF00900F5CFE2
:10222800EEFFE550E150FAE1840EF66E280EF76EE7
:10223800000EF86E0900F5CF5DF00900F5CF5EF0ED
:1022480000EE60F0480EEE6AE806FDE100EE3EF0B2
:102258001F0EEE6AE806FDE15F905F92000EF86ED1
:102268000001A8EF07F0016E0104D8A43EEF11F0B9
:1022780040EF11F066EF11F0CBEC0EF0546E5428DD
:10228800D8B449EF11F04BEF11F059EF11F00001FC
:10229800AE51D8B452EF11F054EF11F059EF11F0DC
:1022A800000EAE6F545073EF11F05428D8A45FEFAE
:1022B80011F061EF11F072EF11F0010E0001AE6F35
:1022C80072EF11F00150D8A46CEF11F06EEF11F01D
:1022D80072EF11F0CBEC0EF073EF11F0FF0E12005D
:1022E800000E066E000E056E03500410D8B47FEF82
:1022F80011F081EF11F0A9EF11F0010E076E89EFCF
:1023080011F0D89003360436072A04AE8EEF11F088
:1023180090EF11F085EF11F0D8900536063603508E
:10232800015C04500258D8A09CEF11F09EEF11F008
:10233800A3EF11F00350015E0450025A0580D890B3
:1023480004320332072E90EF11F005C001F006C0E9
:1023580002F01200000E016E055063EC13F0CBEF93
:1023680011F0010E016E03C0F6FF04C0F7FFF86A12
:10237800050EF76403D00800F55005D0F6CFE9FF45
:10238800F7CFEAFFEF5063EC13F0034A042A03C0C7
:10239800F6FF04C0F7FFF86A050EF76403D00800DB
:1023A800F55005D0F6CFE9FFF7CFEAFFEF50000967
:1023B800D8A4E1EF11F0E3EF11F0B5EF11F012003E
:1023C8000A500B10D8B4EBEF11F0EDEF11F011EF4C
:1023D80012F0010E0C6EF5EF11F0D8900A360B369C
:1023E8000C2A0BAEFAEF11F0FCEF11F0F1EF11F03F
:1023F8000A50085C0B500958D8A005EF12F007EFF7
:1024080012F00BEF12F00A50085E0B50095AD890E0
:102418000B320A320C2EFCEF11F008C008F009C08C
:1024280009F01200AAEC13F008EC14F0D2EC0FF04B
:10243800D9EC13F0F2EC13F01CEC13F0C80E000109
:102448008F6F000E066E000E056E8F5180EC13F034
:102458005A6E00018F2B0550A30FD96EDA6A5AC045
:10246800DFFF054A062A06BE43EF12F0065009E1CF
:10247800040E055CD8A043EF12F045EF12F029EFE7
:1024880012F012005CEF12F002C0F6FF03C0F7FF73
:10249800F86A050EF76403D00800F55005D0F6CFAA
:1024A800E9FFF7CFEAFFEF50FDEC13F0024A032AE9
:1024B80002C0F6FF03C0F7FFF86A050EF76403D001
:1024C8000800F55005D0F6CFE9FFF7CFEAFFEF5047
:1024D8000009D8A472EF12F074EF12F048EF12F06E
:1024E800120079EF12F0012A022A0250D96EDA6A34
:1024F8000150E16EE26ADE50E618D8A486EF12F0C9
:1025080088EF12F093EF12F00150D96EDA6ADF50BB
:10251800D8A491EF12F093EF12F077EF12F0015078
:10252800D96EDA6ADF50036E0250D96EDA6ADF506C
:10253800046E0450035C016E026AD8A00206120001
:102548000600F2A4AAEF12F0ACEF12F0CBEF12F0F3
:10255800080ED624D66E000ED720D76E0001744B15
:10256800752B210E741907E14E0E7519D8A4BFEF0B
:1025780012F0C1EF12F0CAEF12F0000E756F000EE4
:10258800746F5D06D8A05E06764B772BF2945F9247
:10259800110056494557204C4F47000000000000E5
:1025A8000000444F574E4C4F4144204C4F470000C9
:1025B8000000434C454152204C4F470000000000AA
:1025C80000005345542054494D45000000000000C8
:1025D80000004348414E474520504153535744005B
:1025E80000000E6E3BEC14F0A00E29EC14F00E5017
:1025F80029EC14F00D5029EC14F037EC14F0880E87
:102608000F6E130E106E000E116E000E126E0F0676
:10261800000E105A115A125A0F50101011101210A1
:10262800D8A419EF13F01BEF13F00BEF13F01200FF
:10263800000E95EC13F0046E04508009026E000E33
:10264800CAEC13F0020E95EC13F0046E0450400926
:10265800026E020ECAEC13F0930E026E070ECAEC5D
:1026680013F0000E95EC13F0046E04507F0B026E0D
:10267800000ECAEC13F01200076E07C003F0D890E2
:102688000336D8900336C250C30B0310C26EC28201
:10269800C2B251EF13F053EF13F04CEF13F0C350E5
:1026A800C4CF03F0046A03C004F0036A0310056E84
:1026B8000450066E05C001F006C002F01200026E5A
:1026C80001B069EF13F06CEF13F082826DEF13F035
:1026D800829202C083FF82848294958E8280829245
:1026E8008284829483BE7BEF13F07DEF13F074EF46
:1026F80013F08290959E1200026E3BEC14F0A00E2F
:1027080029EC14F0025029EC14F02FEC14F0A10E6F
:1027180029EC14F023EC14F0036E37EC14F003509A
:102728001200026E3BEC14F0D00E29EC14F00250AB
:1027380029EC14F02FEC14F0D10E29EC14F023EC52
:1027480014F0036E37EC14F003501200C08EC09AD8
:10275800C088C096C090C082C094C292C19AC198E5
:10276800000EC46E000EC36EC2801200010001008C
:102778000300014F4E00474E0047520047310047C3
:0B2788003200473300473400434F008D
:10279400036E3BEC14F0D00E29EC14F0035029EC3A
:1027A40014F0025029EC14F037EC14F01200F28CFF
:1027B400F28ED58CD59AD58ED586000ED76E060EA0
:1027C400D66EF294F28A12000E6E000E016E0D5057
:1027D40063EC13F0010E016E0E5063EC13F0120063
:1027E40094869488280EC66E310EC86EC79CC78E18
:1027F4009E96A1961200016E9EA803EF14F005EFB9
:1028040014F0FEEF13F001C0ADFF12000F0EC16E05
:102814001E0E936EF19E8150E009816E1200948E1B
:10282400949CAC84AB8EAB88810EAF6E9D8A1200F3
:102834009EA61FEF14F021EF14F01AEF14F09E96E9
:10284400120033EC14F03FEC14F0C9501200016E86
:1028540001C0C9FF1AEC14F01200C5821AEC14F07E
:102864001200C5861AEC14F01200C5841AEC14F098
:102874001200C5801AEC14F01200C58AC588120033
:022884007800DA
:102ED20000436C656172696E67206C6F67732E2E9A
:102EE2002E00456E746572204E65772050617373B3
:102EF200776400415454454D5054204C454654206B
:102F02002D20004E6F206576656E747320666F7596
:102F12006E640050617373776F7264206368616ED0
:102F220067650054494D45202020204556202053F6
:102F32005000494E434F525245435420504153533F
:102F42000054696D65206E6F74207361766564004C
:102F5200456E7465722050617373776F72640049B5
:102F62006E636F7272656374207061737300444F95
:102F7200574E4C4F414420444F4E450052652D451B
:102F82006E7465722050617373004C6F67732064B6
:102F9200656C65746564005741495420464F522060
:102FA2002D2000444F574E4C4F4144494E47005349
:102FB20055434345535346554C4C0054696D652067
:102FC2007361766564004C4F4720454D505459005B
:102FD200456D707479206C6F670048483A4D4D3AE0
:102FE2005353004C4F47532E2E2E004641494C4519
:0E2FF20044004C4F4753000A0D002020000001
:020000040020DA
:08000000FFFFFFFFFFFFFFFF00
:020000040030CA
:0E000000FF071F1FFF8285FF0FC00FE00F409C
:00000001FF
